:100000000C943E000C9448000C9448000C9448005A
:100010000C9448000C9448000C9448000C94480040
:100020000C9448000C9448000C9448000C94480030
:100030000C9448000C9448000C9448000C94480020
:100040000C9448000C9448000C9448000C94480010
:100050000C9448000C9448000C9448000C94480000
:100060000C9448000C9448000C9448000C944800F0
:100070000C9448000C9448000C94480011241FBEB6
:10008000CFEFD0E1DEBFCDBF0E9480030C946F04A0
:100090000C9400002F923F924F925F926F927F924A
:1000A0008F929F92AF92BF92CF92DF92EF92FF9288
:1000B0000F931F93CF93DF93CDB7DEB729970FB67A
:1000C000F894DEBF0FBECDBF3C017A8369834B83BA
:1000D0001901FD82EC82CE82B886AF8289861F8D9F
:1000E000E8A0F9A04C0186E0880E911CC4010E9492
:1000F00013045301ADE0AA0EB11CC5010E94130404
:100100002301B4E14B0E511CC2010E941304630190
:10011000EBE1CE0ED11CC6010E941304D30111964F
:10012000FC92EE92C701019613969C938E931297C0
:10013000B2E0EB0EF11CF301F582E4828E8D82A316
:100140004B8169817A81C4010E941404402FB1015E
:10015000C5010E94140449856F817885C6010E94FB
:1001600014044E816C817D81C2010E941404D3016C
:10017000ED91FC918BA1882319F08081886002C0E9
:100180008081877F8083D301ED91FC918CA18823AE
:1001900019F08081846002C080818B7F8083103160
:1001A00009F441C078F4143049F11830A1F112304B
:1001B00009F061C0D3011296ED91FC9113978081F3
:1001C000816023C0103409F441C0103809F446C0DE
:1001D000103209F050C0D3011296ED91FC911397A3
:1001E00080818E7F8083ED91FC9111978081826068
:1001F0008083ED91FC9180818E7F3CC0D30112966B
:10020000ED91FC91139780818E7F8083ED91FC911D
:1002100080818C7F2FC0D3011296ED91FC911397B2
:100220008081816007C0D3011296ED91FC911397F4
:1002300080818E7F8083ED91FC9111978081816018
:100240008083ED91FC9180818D7F14C0D301129643
:10025000ED91FC9113978081816007C0D3011296C4
:10026000ED91FC91139780818E7F8083ED91FC91BD
:10027000808183608083F30182A10190F081E02D71
:10028000882339F0808180618083259A2698249A7A
:1002900003C080818F7E8083D301ED91FC918DA17D
:1002A000882319F08081806202C080818F7D8083E5
:1002B000D301ED91FC918AA1882319F08081806897
:1002C00002C080818F77808329960FB6F894DEBFB5
:1002D0000FBECDBFDF91CF911F910F91FF90EF9097
:1002E000DF90CF90BF90AF909F908F907F906F9056
:1002F0005F904F903F902F900895CF92DF92EF92B2
:10030000FF920F931F93CF93DF93EC012AA10696E0
:10031000AE01455E5F4F6A014E5051097A018E0170
:100320000C5E1F4F222361F00E944704C6010E9409
:100330004704C7010E945A04C8010E9447040BC029
:100340000E945A04C6010E945A04C7010E94470431
:10035000C8010E945A04E881F98180818064808309
:10036000DF91CF911F910F91FF90EF90DF90CF9091
:100370000895DC011496ED91FC9115976083089522
:10038000DC011496ED91FC91159780810895FF9200
:100390000F931F93CF93DF93EC018B01F42E0E94F8
:1003A00013044F2DB801CE010E941404CE010E9407
:1003B0005A04CE01DF91CF911F910F91FF900C94C1
:1003C00033042F923F924F925F926F927F928F925F
:1003D0009F92AF92BF92CF92DF92EF92FF920F93D4
:1003E0001F93CF93DF93CDB7DEB72E970FB6F89458
:1003F000DEBF0FBECDBF3C017A836983942E3C8360
:100400002B83302EFE82ED822C2CB886AF828BA1FE
:100410009CA19A8789879DA19B878EA19FA19D877B
:100420008C8798A59E87C3010E941304530187E01F
:10043000A80EB11CC5010E94130463019EE0C90E01
:10044000D11CC6010E941304730185E1E80EF11C62
:10045000C7010E9413048301045E1F4FC8010E945C
:100460001304230193E2490E511CC2010E9413049C
:10047000492D69817A81C3010E941404432D6B8147
:100480007C81C5010E941404422D6D817E81C601CC
:100490000E941404482D6F817885C7010E941404BE
:1004A0004B8569857A85C8010E9414044E856C8548
:1004B0007D85C2012E960FB6F894DEBF0FBECDBF6C
:1004C000DF91CF911F910F91FF90EF90DF90CF9030
:1004D000BF90AF909F908F907F906F905F904F9064
:1004E0003F902F900C9414041F93CF93DF93EC0153
:1004F000162F0E9660FF03C00E94210402C00E94C6
:100500003304CE01459611FF03C00E94210402C0AE
:100510000E943304CE014C9612FF03C00E942104B6
:1005200002C00E943304CE01839613FF05C0DF9101
:10053000CF911F910C942104DF91CF911F910C94C6
:100540003304FF920F931F93CF93DF938C01F62E0A
:100550000E943304E8012796CE010E9421046F2DEA
:1005600070E084E0759567958A95E1F7C8010E946F
:100570007402CE010E943304CE010E9421046F2D2B
:10058000C8010E947402CE010E94330480EA8A9559
:10059000F1F7DF91CF911F910F91FF900895FF9296
:1005A0000F931F93CF93DF938C01F62E0E942104AB
:1005B000E8012796CE010E9421046F2D70E084E0AF
:1005C000759567958A95E1F7C8010E947402CE017E
:1005D0000E943304CE010E9421046F2DC8010E94A5
:1005E0007402CE01DF91CF911F910F91FF900C9477
:1005F000330461E00C94A10262E00C94A1020F9319
:100600001F93CF93DF93EC010E960E944704CE0117
:1006100045960E944704CE014C960E944704CE01A5
:1006200083960E9447048E01095F1F4FC8010E94F4
:100630004704CE010E9447042FEF89E698E121503C
:1006400080409040E1F700C00000CE010E943304DA
:10065000C8010E943304C8010E94210463E0CE0156
:100660000E947402C8010E9433048FE097E2019750
:10067000F1F700C00000C8010E942104C8010E94D7
:10068000330487EC90E00197F1F700C00000C80147
:100690000E942104C8010E94330487EC90E0019776
:1006A000F1F700C00000C8010E94210462E0CE0101
:1006B0000E947402C8010E94330468E2CE010E94C5
:1006C000A10266E0CE010E94A1026CE0CE010E9470
:1006D000A102CE010E94F9028FE99FE00197F1F794
:1006E00000C00000CE010E94FC028FE99FE001974C
:1006F000F1F700C00000DF91CF911F910F91089595
:10070000CF93DF93CDB7DEB7C455D1090FB6F894B8
:10071000DEBF0FBECDBF86E08F931F9282E28F9324
:1007200095E09F931F928F9384E0882E92E2A92EEA
:10073000B12C23E0C22E32E2E32EF12C02E022E2C1
:1007400030E040E062E270E0CE0101960E94E101FB
:10075000CE0101960E94FF021F921F921F921F92CC
:100760001F928CE48F9380E48F9381E08F9347E016
:10077000842E55E2A52EB12C64E0C62E75E2E72E3C
:10078000F12C06E025E230E045E065E270E0CE01C4
:100790008B960E944A00789445E068E270E0CE01B2
:1007A000825B9F4F0E94C701259ACE018B960E94C3
:1007B0007D010FB6F894DEBF0FBECDBF11E4612FEF
:1007C000CE018B960E94B9018FEC97E00197F1F76B
:1007D00000C00000CE018B960E94C001082FCE0100
:1007E00001960E94F9028FE99FE00197F1F700C09E
:1007F0000000CE0101960E94FC028FE99FE0019764
:10080000F1F700C00000602FCE0101960E94CF02D8
:100810001F5F9FEF2EE984E2915020408040E1F776
:1008200000C00000CCCF0895FC0171836083CB0130
:100830000197938382836250710975836483468331
:100840000895DC01ED91FC911197408121E030E0A9
:10085000C90116960C9002C0880F991F0A94E2F7FE
:10086000842B80830895DC01ED91FC9111974081E8
:1008700021E030E0B90116960C9002C0660F771F98
:100880000A94E2F7CB018095842380830895DC01EC
:100890001296ED91FC911397408121E030E0C9015F
:1008A00016960C9002C0880F991F0A94E2F7842BC9
:1008B00080830895DC011296ED91FC91139740819D
:1008C00021E030E0B90116960C9002C0660F771F48
:1008D0000A94E2F7CB018095842380830895F894ED
:0208E000FFCF48
:00000001FF
